{
  "_format": "hh-sol-artifact-1",
  "contractName": "TokenStaking",
  "sourceName": "contracts/TokenStaking.sol",
  "abi": [
    {
      "inputs": [],
      "stateMutability": "nonpayable",
      "type": "constructor"
    },
    {
      "anonymous": false,
      "inputs": [
        {
          "indexed": true,
          "internalType": "address",
          "name": "user",
          "type": "address"
        },
        {
          "indexed": false,
          "internalType": "uint8",
          "name": "poolId",
          "type": "uint8"
        },
        {
          "indexed": false,
          "internalType": "uint256",
          "name": "newBalance",
          "type": "uint256"
        }
      ],
      "name": "BalanceUpdated",
      "type": "event"
    },
    {
      "anonymous": false,
      "inputs": [
        {
          "indexed": true,
          "internalType": "address",
          "name": "user",
          "type": "address"
        },
        {
          "indexed": false,
          "internalType": "uint8",
          "name": "poolId",
          "type": "uint8"
        },
        {
          "indexed": false,
          "internalType": "uint256",
          "name": "newDepositTime",
          "type": "uint256"
        }
      ],
      "name": "DepositTimeUpdated",
      "type": "event"
    },
    {
      "anonymous": false,
      "inputs": [
        {
          "indexed": false,
          "internalType": "uint8",
          "name": "poolId",
          "type": "uint8"
        },
        {
          "indexed": false,
          "internalType": "uint256",
          "name": "newDuration",
          "type": "uint256"
        }
      ],
      "name": "DurationUpdated",
      "type": "event"
    },
    {
      "anonymous": false,
      "inputs": [
        {
          "indexed": true,
          "internalType": "address",
          "name": "previousOwner",
          "type": "address"
        },
        {
          "indexed": true,
          "internalType": "address",
          "name": "newOwner",
          "type": "address"
        }
      ],
      "name": "OwnershipTransferred",
      "type": "event"
    },
    {
      "anonymous": false,
      "inputs": [
        {
          "indexed": true,
          "internalType": "address",
          "name": "user",
          "type": "address"
        },
        {
          "indexed": false,
          "internalType": "uint256",
          "name": "profit",
          "type": "uint256"
        },
        {
          "indexed": false,
          "internalType": "uint8",
          "name": "poolId",
          "type": "uint8"
        }
      ],
      "name": "ProfitWithdrawn",
      "type": "event"
    },
    {
      "anonymous": false,
      "inputs": [
        {
          "indexed": false,
          "internalType": "uint8",
          "name": "poolId",
          "type": "uint8"
        },
        {
          "indexed": false,
          "internalType": "uint256",
          "name": "newRewardRate",
          "type": "uint256"
        }
      ],
      "name": "RewardRateUpdated",
      "type": "event"
    },
    {
      "anonymous": false,
      "inputs": [
        {
          "indexed": true,
          "internalType": "address",
          "name": "user",
          "type": "address"
        },
        {
          "indexed": false,
          "internalType": "uint256",
          "name": "amount",
          "type": "uint256"
        },
        {
          "indexed": false,
          "internalType": "uint8",
          "name": "poolId",
          "type": "uint8"
        }
      ],
      "name": "Staked",
      "type": "event"
    },
    {
      "anonymous": false,
      "inputs": [
        {
          "indexed": true,
          "internalType": "address",
          "name": "user",
          "type": "address"
        },
        {
          "indexed": false,
          "internalType": "uint256",
          "name": "amount",
          "type": "uint256"
        },
        {
          "indexed": false,
          "internalType": "uint256",
          "name": "reward",
          "type": "uint256"
        },
        {
          "indexed": false,
          "internalType": "uint8",
          "name": "poolId",
          "type": "uint8"
        }
      ],
      "name": "Withdrawn",
      "type": "event"
    },
    {
      "inputs": [],
      "name": "PERCENTAGE_DENOMINATOR",
      "outputs": [
        {
          "internalType": "uint256",
          "name": "",
          "type": "uint256"
        }
      ],
      "stateMutability": "view",
      "type": "function"
    },
    {
      "inputs": [
        {
          "internalType": "address",
          "name": "referrer",
          "type": "address"
        }
      ],
      "name": "addReferral",
      "outputs": [],
      "stateMutability": "nonpayable",
      "type": "function"
    },
    {
      "inputs": [
        {
          "internalType": "address",
          "name": "user",
          "type": "address"
        },
        {
          "internalType": "uint8",
          "name": "poolId",
          "type": "uint8"
        }
      ],
      "name": "calculateProfit",
      "outputs": [
        {
          "internalType": "uint256",
          "name": "",
          "type": "uint256"
        }
      ],
      "stateMutability": "view",
      "type": "function"
    },
    {
      "inputs": [],
      "name": "checkBalance",
      "outputs": [
        {
          "internalType": "uint256",
          "name": "",
          "type": "uint256"
        }
      ],
      "stateMutability": "view",
      "type": "function"
    },
    {
      "inputs": [
        {
          "internalType": "uint256",
          "name": "_amount",
          "type": "uint256"
        }
      ],
      "name": "deposit",
      "outputs": [],
      "stateMutability": "payable",
      "type": "function"
    },
    {
      "inputs": [
        {
          "internalType": "uint256",
          "name": "_amount",
          "type": "uint256"
        }
      ],
      "name": "getToken",
      "outputs": [],
      "stateMutability": "nonpayable",
      "type": "function"
    },
    {
      "inputs": [],
      "name": "owner",
      "outputs": [
        {
          "internalType": "address",
          "name": "",
          "type": "address"
        }
      ],
      "stateMutability": "view",
      "type": "function"
    },
    {
      "inputs": [
        {
          "internalType": "uint8",
          "name": "",
          "type": "uint8"
        }
      ],
      "name": "poolData",
      "outputs": [
        {
          "internalType": "uint256",
          "name": "duration",
          "type": "uint256"
        },
        {
          "internalType": "uint256",
          "name": "rewardRate",
          "type": "uint256"
        }
      ],
      "stateMutability": "view",
      "type": "function"
    },
    {
      "inputs": [
        {
          "internalType": "uint256",
          "name": "",
          "type": "uint256"
        }
      ],
      "name": "pools",
      "outputs": [
        {
          "internalType": "uint256",
          "name": "duration",
          "type": "uint256"
        },
        {
          "internalType": "uint256",
          "name": "rewardRate",
          "type": "uint256"
        }
      ],
      "stateMutability": "view",
      "type": "function"
    },
    {
      "inputs": [
        {
          "internalType": "address",
          "name": "",
          "type": "address"
        },
        {
          "internalType": "uint256",
          "name": "",
          "type": "uint256"
        }
      ],
      "name": "referrals",
      "outputs": [
        {
          "internalType": "address",
          "name": "",
          "type": "address"
        }
      ],
      "stateMutability": "view",
      "type": "function"
    },
    {
      "inputs": [
        {
          "internalType": "address",
          "name": "",
          "type": "address"
        }
      ],
      "name": "referredBy",
      "outputs": [
        {
          "internalType": "address",
          "name": "",
          "type": "address"
        }
      ],
      "stateMutability": "view",
      "type": "function"
    },
    {
      "inputs": [],
      "name": "renounceOwnership",
      "outputs": [],
      "stateMutability": "nonpayable",
      "type": "function"
    },
    {
      "inputs": [
        {
          "internalType": "address",
          "name": "_addr",
          "type": "address"
        },
        {
          "internalType": "uint256",
          "name": "_poolId",
          "type": "uint256"
        }
      ],
      "name": "showMyBalancesInPool",
      "outputs": [
        {
          "internalType": "uint256",
          "name": "",
          "type": "uint256"
        }
      ],
      "stateMutability": "view",
      "type": "function"
    },
    {
      "inputs": [
        {
          "internalType": "uint256",
          "name": "_amount",
          "type": "uint256"
        },
        {
          "internalType": "uint8",
          "name": "_poolId",
          "type": "uint8"
        }
      ],
      "name": "stake",
      "outputs": [],
      "stateMutability": "nonpayable",
      "type": "function"
    },
    {
      "inputs": [],
      "name": "stakingToken",
      "outputs": [
        {
          "internalType": "contract IERC20",
          "name": "",
          "type": "address"
        }
      ],
      "stateMutability": "view",
      "type": "function"
    },
    {
      "inputs": [
        {
          "internalType": "address payable",
          "name": "_to",
          "type": "address"
        },
        {
          "internalType": "uint256",
          "name": "_amount",
          "type": "uint256"
        }
      ],
      "name": "transferMatic",
      "outputs": [],
      "stateMutability": "nonpayable",
      "type": "function"
    },
    {
      "inputs": [
        {
          "internalType": "address",
          "name": "newOwner",
          "type": "address"
        }
      ],
      "name": "transferOwnership",
      "outputs": [],
      "stateMutability": "nonpayable",
      "type": "function"
    },
    {
      "inputs": [
        {
          "internalType": "address",
          "name": "",
          "type": "address"
        }
      ],
      "name": "validForReferrer",
      "outputs": [
        {
          "internalType": "bool",
          "name": "",
          "type": "bool"
        }
      ],
      "stateMutability": "view",
      "type": "function"
    },
    {
      "inputs": [
        {
          "internalType": "uint8",
          "name": "_poolId",
          "type": "uint8"
        }
      ],
      "name": "withdrawAllAmount",
      "outputs": [],
      "stateMutability": "nonpayable",
      "type": "function"
    },
    {
      "inputs": [
        {
          "internalType": "address payable",
          "name": "_to",
          "type": "address"
        },
        {
          "internalType": "uint256",
          "name": "_amount",
          "type": "uint256"
        }
      ],
      "name": "withdrawMatic",
      "outputs": [],
      "stateMutability": "nonpayable",
      "type": "function"
    },
    {
      "inputs": [
        {
          "internalType": "uint8",
          "name": "_poolId",
          "type": "uint8"
        }
      ],
      "name": "withdrawProfit",
      "outputs": [],
      "stateMutability": "nonpayable",
      "type": "function"
    },
    {
      "inputs": [
        {
          "internalType": "uint256",
          "name": "amount",
          "type": "uint256"
        },
        {
          "internalType": "uint8",
          "name": "_poolId",
          "type": "uint8"
        }
      ],
      "name": "withdrawSpecificProfit",
      "outputs": [],
      "stateMutability": "nonpayable",
      "type": "function"
    }
  ],
  "bytecode": "0x60806040523480156200001157600080fd5b5062000032620000266200028d60201b60201c565b6200029560201b60201c565b600180819055506000604051620000499062000359565b604051809103906000f08015801562000066573d6000803e3d6000fd5b50905080600260006101000a81548173ffffffffffffffffffffffffffffffffffffffff021916908373ffffffffffffffffffffffffffffffffffffffff160217905550603c6005600060048110620000c457620000c362000367565b5b60050201600001819055506101f46005600060048110620000ea57620000e962000367565b5b6005020160010181905550607860056001600481106200010f576200010e62000367565b5b60050201600001819055506103e8600560016004811062000135576200013462000367565b5b600502016001018190555060f060056002600481106200015a576200015962000367565b5b6005020160000181905550611388600560026004811062000180576200017f62000367565b5b60050201600101819055506101686005600360048110620001a657620001a562000367565b5b60050201600001819055506117706005600360048110620001cc57620001cb62000367565b5b6005020160010181905550600260009054906101000a900473ffffffffffffffffffffffffffffffffffffffff1673ffffffffffffffffffffffffffffffffffffffff1663a9059cbb33683635c9adc5dea000006040518363ffffffff1660e01b81526004016200023f92919062000432565b6020604051808303816000875af11580156200025f573d6000803e3d6000fd5b505050506040513d601f19601f82011682018060405250810190620002859190620004a1565b5050620004d3565b600033905090565b60008060009054906101000a900473ffffffffffffffffffffffffffffffffffffffff169050816000806101000a81548173ffffffffffffffffffffffffffffffffffffffff021916908373ffffffffffffffffffffffffffffffffffffffff1602179055508173ffffffffffffffffffffffffffffffffffffffff168173ffffffffffffffffffffffffffffffffffffffff167f8be0079c531659141344cd1fd0a4f28419497f9722a3daafe3b4186f6b6457e060405160405180910390a35050565b611b178062003b3883390190565b7f4e487b7100000000000000000000000000000000000000000000000000000000600052603260045260246000fd5b600073ffffffffffffffffffffffffffffffffffffffff82169050919050565b6000620003c38262000396565b9050919050565b620003d581620003b6565b82525050565b6000819050919050565b6000819050919050565b6000819050919050565b60006200041a620004146200040e84620003db565b620003ef565b620003e5565b9050919050565b6200042c81620003f9565b82525050565b6000604082019050620004496000830185620003ca565b62000458602083018462000421565b9392505050565b600080fd5b60008115159050919050565b6200047b8162000464565b81146200048757600080fd5b50565b6000815190506200049b8162000470565b92915050565b600060208284031215620004ba57620004b96200045f565b5b6000620004ca848285016200048a565b91505092915050565b61365580620004e36000396000f3fe6080604052600436106101355760003560e01c8063b3cd4254116100ab578063e697b5d81161006f578063e697b5d814610419578063e81884b914610456578063e8aca46a1461047f578063eb9e024f146104a8578063f2fde38b146104d1578063f39d67be146104fa57610135565b8063b3cd425414610355578063b6b55f2514610380578063c71daccb1461039c578063cd9368aa146103c7578063e4b50cb8146103f057610135565b8063715018a6116100fd578063715018a61461022f57806372f702f3146102465780638da5cb5b14610271578063a90f8e9a1461029c578063ac4afa38146102d9578063ae06a1431461031757610135565b806310087fb11461013a5780631512a42b146101635780631c9a9d641461018c5780633edaa34b146101c9578063567349e414610206575b600080fd5b34801561014657600080fd5b50610161600480360381019061015c91906127b8565b610537565b005b34801561016f57600080fd5b5061018a600480360381019061018591906127f8565b610a14565b005b34801561019857600080fd5b506101b360048036038101906101ae9190612883565b6111e1565b6040516101c091906128d2565b60405180910390f35b3480156101d557600080fd5b506101f060048036038101906101eb91906128ed565b611439565b6040516101fd91906128d2565b60405180910390f35b34801561021257600080fd5b5061022d600480360381019061022891906127f8565b6114a1565b005b34801561023b57600080fd5b50610244611ba7565b005b34801561025257600080fd5b5061025b611bbb565b604051610268919061298c565b60405180910390f35b34801561027d57600080fd5b50610286611be1565b60405161029391906129b6565b60405180910390f35b3480156102a857600080fd5b506102c360048036038101906102be91906129d1565b611c0a565b6040516102d091906129b6565b60405180910390f35b3480156102e557600080fd5b5061030060048036038101906102fb91906129fe565b611c3d565b60405161030e929190612a2b565b60405180910390f35b34801561032357600080fd5b5061033e600480360381019061033991906127f8565b611c67565b60405161034c929190612a2b565b60405180910390f35b34801561036157600080fd5b5061036a611c8b565b60405161037791906128d2565b60405180910390f35b61039a600480360381019061039591906129fe565b611c91565b005b3480156103a857600080fd5b506103b1611cd7565b6040516103be91906128d2565b60405180910390f35b3480156103d357600080fd5b506103ee60048036038101906103e99190612a92565b611cdf565b005b3480156103fc57600080fd5b50610417600480360381019061041291906129fe565b611d75565b005b34801561042557600080fd5b50610440600480360381019061043b91906128ed565b611e19565b60405161044d91906129b6565b60405180910390f35b34801561046257600080fd5b5061047d60048036038101906104789190612a92565b611e67565b005b34801561048b57600080fd5b506104a660048036038101906104a191906129d1565b611ef5565b005b3480156104b457600080fd5b506104cf60048036038101906104ca91906127b8565b612288565b005b3480156104dd57600080fd5b506104f860048036038101906104f391906129d1565b6124e5565b005b34801561050657600080fd5b50610521600480360381019061051c91906129d1565b612568565b60405161052e9190612aed565b60405180910390f35b61053f612588565b60008160ff1610158015610556575060048160ff16105b610595576040517f08c379a000000000000000000000000000000000000000000000000000000000815260040161058c90612b65565b60405180910390fd5b600082116105d8576040517f08c379a00000000000000000000000000000000000000000000000000000000081526004016105cf90612bd1565b60405180910390fd5b600060058260ff16600481106105f1576105f0612bf1565b5b60050201905082600260009054906101000a900473ffffffffffffffffffffffffffffffffffffffff1673ffffffffffffffffffffffffffffffffffffffff166370a08231336040518263ffffffff1660e01b815260040161065391906129b6565b602060405180830381865afa158015610670573d6000803e3d6000fd5b505050506040513d601f19601f820116820180604052508101906106949190612c35565b10156106d5576040517f08c379a00000000000000000000000000000000000000000000000000000000081526004016106cc90612cae565b60405180910390fd5b82600260009054906101000a900473ffffffffffffffffffffffffffffffffffffffff1673ffffffffffffffffffffffffffffffffffffffff1663dd62ed3e33306040518363ffffffff1660e01b8152600401610733929190612cce565b602060405180830381865afa158015610750573d6000803e3d6000fd5b505050506040513d601f19601f820116820180604052508101906107749190612c35565b10156107b5576040517f08c379a00000000000000000000000000000000000000000000000000000000081526004016107ac90612d43565b60405180910390fd5b6001601960003373ffffffffffffffffffffffffffffffffffffffff1673ffffffffffffffffffffffffffffffffffffffff16815260200190815260200160002060006101000a81548160ff021916908315150217905550600260009054906101000a900473ffffffffffffffffffffffffffffffffffffffff1673ffffffffffffffffffffffffffffffffffffffff166323b872dd3330866040518463ffffffff1660e01b815260040161086c93929190612d63565b6020604051808303816000875af115801561088b573d6000803e3d6000fd5b505050506040513d601f19601f820116820180604052508101906108af9190612dc6565b50828160020160003373ffffffffffffffffffffffffffffffffffffffff1673ffffffffffffffffffffffffffffffffffffffff16815260200190815260200160002060008282546109019190612e22565b92505081905550428160030160003373ffffffffffffffffffffffffffffffffffffffff1673ffffffffffffffffffffffffffffffffffffffff1681526020019081526020016000208190555082600460008282546109609190612e22565b925050819055503373ffffffffffffffffffffffffffffffffffffffff167f8acf475137e0cd74ca7f611d16b1e6383ec9a9c71a8e5b85967781b9c7214d1184846040516109af929190612e65565b60405180910390a23373ffffffffffffffffffffffffffffffffffffffff167fbd654b55d2a05b8f862e2e2c9fae42214f49c31ef0b1310a690e6db5785dd58783856040516109ff929190612e8e565b60405180910390a250610a106125d7565b5050565b610a1c612588565b60008160ff1610158015610a33575060048160ff16105b610a72576040517f08c379a0000000000000000000000000000000000000000000000000000000008152600401610a6990612b65565b60405180910390fd5b600060058260ff1660048110610a8b57610a8a612bf1565b5b60050201905060008160020160003373ffffffffffffffffffffffffffffffffffffffff1673ffffffffffffffffffffffffffffffffffffffff16815260200190815260200160002054905060008111610b1a576040517f08c379a0000000000000000000000000000000000000000000000000000000008152600401610b1190612f03565b60405180910390fd5b60008260030160003373ffffffffffffffffffffffffffffffffffffffff1673ffffffffffffffffffffffffffffffffffffffff1681526020019081526020016000205442610b699190612f23565b9050600083600001548210610b8557610b8233866111e1565b90505b60006064600583610b969190612f57565b610ba09190612fc8565b905060006064600384610bb39190612f57565b610bbd9190612fc8565b905060006064600185610bd09190612f57565b610bda9190612fc8565b90506000601a60003373ffffffffffffffffffffffffffffffffffffffff1673ffffffffffffffffffffffffffffffffffffffff16815260200190815260200160002060009054906101000a900473ffffffffffffffffffffffffffffffffffffffff1690506000601a60008373ffffffffffffffffffffffffffffffffffffffff1673ffffffffffffffffffffffffffffffffffffffff16815260200190815260200160002060009054906101000a900473ffffffffffffffffffffffffffffffffffffffff1690506000601a60008373ffffffffffffffffffffffffffffffffffffffff1673ffffffffffffffffffffffffffffffffffffffff16815260200190815260200160002060009054906101000a900473ffffffffffffffffffffffffffffffffffffffff169050600073ffffffffffffffffffffffffffffffffffffffff168373ffffffffffffffffffffffffffffffffffffffff1614610dde57600260009054906101000a900473ffffffffffffffffffffffffffffffffffffffff1673ffffffffffffffffffffffffffffffffffffffff1663a9059cbb84886040518363ffffffff1660e01b8152600401610d99929190612ff9565b6020604051808303816000875af1158015610db8573d6000803e3d6000fd5b505050506040513d601f19601f82011682018060405250810190610ddc9190612dc6565b505b600073ffffffffffffffffffffffffffffffffffffffff168273ffffffffffffffffffffffffffffffffffffffff1614610eb457600260009054906101000a900473ffffffffffffffffffffffffffffffffffffffff1673ffffffffffffffffffffffffffffffffffffffff1663a9059cbb83876040518363ffffffff1660e01b8152600401610e6f929190612ff9565b6020604051808303816000875af1158015610e8e573d6000803e3d6000fd5b505050506040513d601f19601f82011682018060405250810190610eb29190612dc6565b505b600073ffffffffffffffffffffffffffffffffffffffff168173ffffffffffffffffffffffffffffffffffffffff1614610f8a57600260009054906101000a900473ffffffffffffffffffffffffffffffffffffffff1673ffffffffffffffffffffffffffffffffffffffff1663a9059cbb82866040518363ffffffff1660e01b8152600401610f45929190612ff9565b6020604051808303816000875af1158015610f64573d6000803e3d6000fd5b505050506040513d601f19601f82011682018060405250810190610f889190612dc6565b505b60008a60020160003373ffffffffffffffffffffffffffffffffffffffff1673ffffffffffffffffffffffffffffffffffffffff1681526020019081526020016000208190555060008a60030160003373ffffffffffffffffffffffffffffffffffffffff1673ffffffffffffffffffffffffffffffffffffffff16815260200190815260200160002081905550600260009054906101000a900473ffffffffffffffffffffffffffffffffffffffff1673ffffffffffffffffffffffffffffffffffffffff1663a9059cbb33898c6110639190612e22565b6040518363ffffffff1660e01b8152600401611080929190612ff9565b6020604051808303816000875af115801561109f573d6000803e3d6000fd5b505050506040513d601f19601f820116820180604052508101906110c39190612dc6565b503373ffffffffffffffffffffffffffffffffffffffff167ffe150c1079587a96d20587da26df20f85f13fb428954657154bc16e4ec201f55888d60405161110c929190612e65565b60405180910390a23373ffffffffffffffffffffffffffffffffffffffff167fbd654b55d2a05b8f862e2e2c9fae42214f49c31ef0b1310a690e6db5785dd5878c898c6111599190612e22565b604051611167929190612e8e565b60405180910390a23373ffffffffffffffffffffffffffffffffffffffff167f939e45c2a0bfec7a2bdfa3cb3e08e1bc7f8ba9dc5fe33aac70c75c949ebbb624888b6111b39190612e22565b898e6040516111c493929190613022565b60405180910390a2505050505050505050506111de6125d7565b50565b6000808260ff16101580156111f9575060048260ff16105b611238576040517f08c379a000000000000000000000000000000000000000000000000000000000815260040161122f90612b65565b60405180910390fd5b600060058360ff166004811061125157611250612bf1565b5b60050201905060008160020160008673ffffffffffffffffffffffffffffffffffffffff1673ffffffffffffffffffffffffffffffffffffffff168152602001908152602001600020549050600081036112b057600092505050611433565b600061133e8360030160008873ffffffffffffffffffffffffffffffffffffffff1673ffffffffffffffffffffffffffffffffffffffff168152602001908152602001600020548460040160008973ffffffffffffffffffffffffffffffffffffffff1673ffffffffffffffffffffffffffffffffffffffff168152602001908152602001600020546125e0565b90506000429050600084600001548560030160008a73ffffffffffffffffffffffffffffffffffffffff1673ffffffffffffffffffffffffffffffffffffffff168152602001908152602001600020546113989190612e22565b90508082106113a5578091505b600083836113b39190612f23565b9050600086600101549050600087600001549050600061271082670de0b6b3a7640000856113e19190612f57565b6113eb9190612fc8565b6113f59190612fc8565b90506000670de0b6b3a764000089838761140f9190612f57565b6114199190612f57565b6114239190612fc8565b9050809a50505050505050505050505b92915050565b600080600583600481106114505761144f612bf1565b5b6005020190508060020160008573ffffffffffffffffffffffffffffffffffffffff1673ffffffffffffffffffffffffffffffffffffffff1681526020019081526020016000205491505092915050565b6114a9612588565b60008160ff16101580156114c0575060048160ff16105b6114ff576040517f08c379a00000000000000000000000000000000000000000000000000000000081526004016114f690612b65565b60405180910390fd5b600061150b33836111e1565b905060008111611550576040517f08c379a0000000000000000000000000000000000000000000000000000000008152600401611547906130cb565b60405180910390fd5b600060058360ff166004811061156957611568612bf1565b5b60050201905060008160030160003373ffffffffffffffffffffffffffffffffffffffff1673ffffffffffffffffffffffffffffffffffffffff16815260200190815260200160002054426115be9190612f23565b90508160000154811115611607576040517f08c379a00000000000000000000000000000000000000000000000000000000081526004016115fe9061315d565b60405180910390fd5b600060646005856116189190612f57565b6116229190612fc8565b9050600060646003866116359190612f57565b61163f9190612fc8565b9050600060646001876116529190612f57565b61165c9190612fc8565b90506000601a60003373ffffffffffffffffffffffffffffffffffffffff1673ffffffffffffffffffffffffffffffffffffffff16815260200190815260200160002060009054906101000a900473ffffffffffffffffffffffffffffffffffffffff1690506000601a60008373ffffffffffffffffffffffffffffffffffffffff1673ffffffffffffffffffffffffffffffffffffffff16815260200190815260200160002060009054906101000a900473ffffffffffffffffffffffffffffffffffffffff1690506000601a60008373ffffffffffffffffffffffffffffffffffffffff1673ffffffffffffffffffffffffffffffffffffffff16815260200190815260200160002060009054906101000a900473ffffffffffffffffffffffffffffffffffffffff169050600073ffffffffffffffffffffffffffffffffffffffff168373ffffffffffffffffffffffffffffffffffffffff161461186057600260009054906101000a900473ffffffffffffffffffffffffffffffffffffffff1673ffffffffffffffffffffffffffffffffffffffff1663a9059cbb84886040518363ffffffff1660e01b815260040161181b929190612ff9565b6020604051808303816000875af115801561183a573d6000803e3d6000fd5b505050506040513d601f19601f8201168201806040525081019061185e9190612dc6565b505b600073ffffffffffffffffffffffffffffffffffffffff168273ffffffffffffffffffffffffffffffffffffffff161461193657600260009054906101000a900473ffffffffffffffffffffffffffffffffffffffff1673ffffffffffffffffffffffffffffffffffffffff1663a9059cbb83876040518363ffffffff1660e01b81526004016118f1929190612ff9565b6020604051808303816000875af1158015611910573d6000803e3d6000fd5b505050506040513d601f19601f820116820180604052508101906119349190612dc6565b505b600073ffffffffffffffffffffffffffffffffffffffff168173ffffffffffffffffffffffffffffffffffffffff1614611a0c57600260009054906101000a900473ffffffffffffffffffffffffffffffffffffffff1673ffffffffffffffffffffffffffffffffffffffff1663a9059cbb82866040518363ffffffff1660e01b81526004016119c7929190612ff9565b6020604051808303816000875af11580156119e6573d6000803e3d6000fd5b505050506040513d601f19601f82011682018060405250810190611a0a9190612dc6565b505b428860040160003373ffffffffffffffffffffffffffffffffffffffff1673ffffffffffffffffffffffffffffffffffffffff16815260200190815260200160002081905550600260009054906101000a900473ffffffffffffffffffffffffffffffffffffffff1673ffffffffffffffffffffffffffffffffffffffff1663a9059cbb338b6040518363ffffffff1660e01b8152600401611aaf929190612ff9565b6020604051808303816000875af1158015611ace573d6000803e3d6000fd5b505050506040513d601f19601f82011682018060405250810190611af29190612dc6565b503373ffffffffffffffffffffffffffffffffffffffff167fbd654b55d2a05b8f862e2e2c9fae42214f49c31ef0b1310a690e6db5785dd5878b8b604051611b3b929190612e8e565b60405180910390a23373ffffffffffffffffffffffffffffffffffffffff167ffe150c1079587a96d20587da26df20f85f13fb428954657154bc16e4ec201f558a8c604051611b8b929190612e65565b60405180910390a2505050505050505050611ba46125d7565b50565b611baf6125fa565b611bb96000612678565b565b600260009054906101000a900473ffffffffffffffffffffffffffffffffffffffff1681565b60008060009054906101000a900473ffffffffffffffffffffffffffffffffffffffff16905090565b601a6020528060005260406000206000915054906101000a900473ffffffffffffffffffffffffffffffffffffffff1681565b60058160048110611c4d57600080fd5b600502016000915090508060000154908060010154905082565b60036020528060005260406000206000915090508060000154908060010154905082565b61271081565b60008111611cd4576040517f08c379a0000000000000000000000000000000000000000000000000000000008152600401611ccb906131c9565b60405180910390fd5b50565b600047905090565b611ce76125fa565b80471015611d2a576040517f08c379a0000000000000000000000000000000000000000000000000000000008152600401611d21906131c9565b60405180910390fd5b8173ffffffffffffffffffffffffffffffffffffffff166108fc829081150290604051600060405180830381858888f19350505050158015611d70573d6000803e3d6000fd5b505050565b600260009054906101000a900473ffffffffffffffffffffffffffffffffffffffff1673ffffffffffffffffffffffffffffffffffffffff1663a9059cbb33836040518363ffffffff1660e01b8152600401611dd2929190612ff9565b6020604051808303816000875af1158015611df1573d6000803e3d6000fd5b505050506040513d601f19601f82011682018060405250810190611e159190612dc6565b5050565b601b6020528160005260406000208181548110611e3557600080fd5b906000526020600020016000915091509054906101000a900473ffffffffffffffffffffffffffffffffffffffff1681565b80471015611eaa576040517f08c379a0000000000000000000000000000000000000000000000000000000008152600401611ea190613235565b60405180910390fd5b8173ffffffffffffffffffffffffffffffffffffffff166108fc829081150290604051600060405180830381858888f19350505050158015611ef0573d6000803e3d6000fd5b505050565b3373ffffffffffffffffffffffffffffffffffffffff168173ffffffffffffffffffffffffffffffffffffffff1603611f63576040517f08c379a0000000000000000000000000000000000000000000000000000000008152600401611f5a906132a1565b60405180910390fd5b600073ffffffffffffffffffffffffffffffffffffffff16601a60003373ffffffffffffffffffffffffffffffffffffffff1673ffffffffffffffffffffffffffffffffffffffff16815260200190815260200160002060009054906101000a900473ffffffffffffffffffffffffffffffffffffffff1673ffffffffffffffffffffffffffffffffffffffff1614612031576040517f08c379a00000000000000000000000000000000000000000000000000000000081526004016120289061330d565b60405180910390fd5b601960008273ffffffffffffffffffffffffffffffffffffffff1673ffffffffffffffffffffffffffffffffffffffff16815260200190815260200160002060009054906101000a900460ff166120bd576040517f08c379a00000000000000000000000000000000000000000000000000000000081526004016120b4906133c5565b60405180910390fd5b600260009054906101000a900473ffffffffffffffffffffffffffffffffffffffff1673ffffffffffffffffffffffffffffffffffffffff1663a9059cbb33681043561a88293000006040518363ffffffff1660e01b8152600401612123929190613420565b6020604051808303816000875af1158015612142573d6000803e3d6000fd5b505050506040513d601f19601f820116820180604052508101906121669190612dc6565b5080601a60003373ffffffffffffffffffffffffffffffffffffffff1673ffffffffffffffffffffffffffffffffffffffff16815260200190815260200160002060006101000a81548173ffffffffffffffffffffffffffffffffffffffff021916908373ffffffffffffffffffffffffffffffffffffffff160217905550601b60008273ffffffffffffffffffffffffffffffffffffffff1673ffffffffffffffffffffffffffffffffffffffff168152602001908152602001600020339080600181540180825580915050600190039060005260206000200160009091909190916101000a81548173ffffffffffffffffffffffffffffffffffffffff021916908373ffffffffffffffffffffffffffffffffffffffff16021790555050565b612290612588565b60008160ff16101580156122a7575060048160ff16105b6122e6576040517f08c379a00000000000000000000000000000000000000000000000000000000081526004016122dd90612b65565b60405180910390fd5b60006122f233836111e1565b905082811015612337576040517f08c379a000000000000000000000000000000000000000000000000000000000815260040161232e90613495565b60405180910390fd5b4260058360ff166004811061234f5761234e612bf1565b5b6005020160040160003373ffffffffffffffffffffffffffffffffffffffff1673ffffffffffffffffffffffffffffffffffffffff16815260200190815260200160002081905550600260009054906101000a900473ffffffffffffffffffffffffffffffffffffffff1673ffffffffffffffffffffffffffffffffffffffff1663a9059cbb33856040518363ffffffff1660e01b81526004016123f4929190612ff9565b6020604051808303816000875af1158015612413573d6000803e3d6000fd5b505050506040513d601f19601f820116820180604052508101906124379190612dc6565b503373ffffffffffffffffffffffffffffffffffffffff167fbd654b55d2a05b8f862e2e2c9fae42214f49c31ef0b1310a690e6db5785dd5878385604051612480929190612e8e565b60405180910390a23373ffffffffffffffffffffffffffffffffffffffff167ffe150c1079587a96d20587da26df20f85f13fb428954657154bc16e4ec201f5584846040516124d0929190612e65565b60405180910390a2506124e16125d7565b5050565b6124ed6125fa565b600073ffffffffffffffffffffffffffffffffffffffff168173ffffffffffffffffffffffffffffffffffffffff160361255c576040517f08c379a000000000000000000000000000000000000000000000000000000000815260040161255390613527565b60405180910390fd5b61256581612678565b50565b60196020528060005260406000206000915054906101000a900460ff1681565b6002600154036125cd576040517f08c379a00000000000000000000000000000000000000000000000000000000081526004016125c490613593565b60405180910390fd5b6002600181905550565b60018081905550565b6000818310156125f057816125f2565b825b905092915050565b61260261273c565b73ffffffffffffffffffffffffffffffffffffffff16612620611be1565b73ffffffffffffffffffffffffffffffffffffffff1614612676576040517f08c379a000000000000000000000000000000000000000000000000000000000815260040161266d906135ff565b60405180910390fd5b565b60008060009054906101000a900473ffffffffffffffffffffffffffffffffffffffff169050816000806101000a81548173ffffffffffffffffffffffffffffffffffffffff021916908373ffffffffffffffffffffffffffffffffffffffff1602179055508173ffffffffffffffffffffffffffffffffffffffff168173ffffffffffffffffffffffffffffffffffffffff167f8be0079c531659141344cd1fd0a4f28419497f9722a3daafe3b4186f6b6457e060405160405180910390a35050565b600033905090565b600080fd5b6000819050919050565b61275c81612749565b811461276757600080fd5b50565b60008135905061277981612753565b92915050565b600060ff82169050919050565b6127958161277f565b81146127a057600080fd5b50565b6000813590506127b28161278c565b92915050565b600080604083850312156127cf576127ce612744565b5b60006127dd8582860161276a565b92505060206127ee858286016127a3565b9150509250929050565b60006020828403121561280e5761280d612744565b5b600061281c848285016127a3565b91505092915050565b600073ffffffffffffffffffffffffffffffffffffffff82169050919050565b600061285082612825565b9050919050565b61286081612845565b811461286b57600080fd5b50565b60008135905061287d81612857565b92915050565b6000806040838503121561289a57612899612744565b5b60006128a88582860161286e565b92505060206128b9858286016127a3565b9150509250929050565b6128cc81612749565b82525050565b60006020820190506128e760008301846128c3565b92915050565b6000806040838503121561290457612903612744565b5b60006129128582860161286e565b92505060206129238582860161276a565b9150509250929050565b6000819050919050565b600061295261294d61294884612825565b61292d565b612825565b9050919050565b600061296482612937565b9050919050565b600061297682612959565b9050919050565b6129868161296b565b82525050565b60006020820190506129a1600083018461297d565b92915050565b6129b081612845565b82525050565b60006020820190506129cb60008301846129a7565b92915050565b6000602082840312156129e7576129e6612744565b5b60006129f58482850161286e565b91505092915050565b600060208284031215612a1457612a13612744565b5b6000612a228482850161276a565b91505092915050565b6000604082019050612a4060008301856128c3565b612a4d60208301846128c3565b9392505050565b6000612a5f82612825565b9050919050565b612a6f81612a54565b8114612a7a57600080fd5b50565b600081359050612a8c81612a66565b92915050565b60008060408385031215612aa957612aa8612744565b5b6000612ab785828601612a7d565b9250506020612ac88582860161276a565b9150509250929050565b60008115159050919050565b612ae781612ad2565b82525050565b6000602082019050612b026000830184612ade565b92915050565b600082825260208201905092915050565b7f496e76616c696420706f6f6c2069640000000000000000000000000000000000600082015250565b6000612b4f600f83612b08565b9150612b5a82612b19565b602082019050919050565b60006020820190508181036000830152612b7e81612b42565b9050919050565b7f416d6f756e74206d7573742062652067726561746572207468616e2030000000600082015250565b6000612bbb601d83612b08565b9150612bc682612b85565b602082019050919050565b60006020820190508181036000830152612bea81612bae565b9050919050565b7f4e487b7100000000000000000000000000000000000000000000000000000000600052603260045260246000fd5b600081519050612c2f81612753565b92915050565b600060208284031215612c4b57612c4a612744565b5b6000612c5984828501612c20565b91505092915050565b7f496e73756666696369656e742062616c616e6365000000000000000000000000600082015250565b6000612c98601483612b08565b9150612ca382612c62565b602082019050919050565b60006020820190508181036000830152612cc781612c8b565b9050919050565b6000604082019050612ce360008301856129a7565b612cf060208301846129a7565b9392505050565b7f496e73756666696369656e7420616c6c6f77616e636500000000000000000000600082015250565b6000612d2d601683612b08565b9150612d3882612cf7565b602082019050919050565b60006020820190508181036000830152612d5c81612d20565b9050919050565b6000606082019050612d7860008301866129a7565b612d8560208301856129a7565b612d9260408301846128c3565b949350505050565b612da381612ad2565b8114612dae57600080fd5b50565b600081519050612dc081612d9a565b92915050565b600060208284031215612ddc57612ddb612744565b5b6000612dea84828501612db1565b91505092915050565b7f4e487b7100000000000000000000000000000000000000000000000000000000600052601160045260246000fd5b6000612e2d82612749565b9150612e3883612749565b9250828201905080821115612e5057612e4f612df3565b5b92915050565b612e5f8161277f565b82525050565b6000604082019050612e7a60008301856128c3565b612e876020830184612e56565b9392505050565b6000604082019050612ea36000830185612e56565b612eb060208301846128c3565b9392505050565b7f4e6f2062616c616e636520746f20776974686472617700000000000000000000600082015250565b6000612eed601683612b08565b9150612ef882612eb7565b602082019050919050565b60006020820190508181036000830152612f1c81612ee0565b9050919050565b6000612f2e82612749565b9150612f3983612749565b9250828203905081811115612f5157612f50612df3565b5b92915050565b6000612f6282612749565b9150612f6d83612749565b9250828202612f7b81612749565b91508282048414831517612f9257612f91612df3565b5b5092915050565b7f4e487b7100000000000000000000000000000000000000000000000000000000600052601260045260246000fd5b6000612fd382612749565b9150612fde83612749565b925082612fee57612fed612f99565b5b828204905092915050565b600060408201905061300e60008301856129a7565b61301b60208301846128c3565b9392505050565b600060608201905061303760008301866128c3565b61304460208301856128c3565b6130516040830184612e56565b949350505050565b7f4e6f2070726f66697420617661696c61626c6520666f7220776974686472617760008201527f616c000000000000000000000000000000000000000000000000000000000000602082015250565b60006130b5602283612b08565b91506130c082613059565b604082019050919050565b600060208201905081810360008301526130e4816130a8565b9050919050565b7f506f6f6c206475726174696f6e20636f6d706c65746520752063616e2077697460008201527f6864726177616c20616c6c20616d6f756e740000000000000000000000000000602082015250565b6000613147603283612b08565b9150613152826130eb565b604082019050919050565b600060208201905081810360008301526131768161313a565b9050919050565b7f496e73756666696369656e742062616c616e636520746f207769746864726177600082015250565b60006131b3602083612b08565b91506131be8261317d565b602082019050919050565b600060208201905081810360008301526131e2816131a6565b9050919050565b7f496e73756666696369656e742062616c616e636520746f207472616e73666572600082015250565b600061321f602083612b08565b915061322a826131e9565b602082019050919050565b6000602082019050818103600083015261324e81613212565b9050919050565b7f596f752063616e6e6f7420726566657220796f757273656c6600000000000000600082015250565b600061328b601983612b08565b915061329682613255565b602082019050919050565b600060208201905081810360008301526132ba8161327e565b9050919050565b7f526566657272657220616c726561647920736574000000000000000000000000600082015250565b60006132f7601483612b08565b9150613302826132c1565b602082019050919050565b60006020820190508181036000830152613326816132ea565b9050919050565b7f546f2075736520746869732020726566657272616c206163636f756e7420746860008201527f6973206163636f756e74206d757374207374616b6520736f6d6520746f6b656e60208201527f20696e20616e7920706f6f6c0000000000000000000000000000000000000000604082015250565b60006133af604c83612b08565b91506133ba8261332d565b606082019050919050565b600060208201905081810360008301526133de816133a2565b9050919050565b6000819050919050565b600061340a613405613400846133e5565b61292d565b612749565b9050919050565b61341a816133ef565b82525050565b600060408201905061343560008301856129a7565b6134426020830184613411565b9392505050565b7f546f6b656e5374616b696e673a204e6f7420656e6f7567682070726f66697400600082015250565b600061347f601f83612b08565b915061348a82613449565b602082019050919050565b600060208201905081810360008301526134ae81613472565b9050919050565b7f4f776e61626c653a206e6577206f776e657220697320746865207a65726f206160008201527f6464726573730000000000000000000000000000000000000000000000000000602082015250565b6000613511602683612b08565b915061351c826134b5565b604082019050919050565b6000602082019050818103600083015261354081613504565b9050919050565b7f5265656e7472616e637947756172643a207265656e7472616e742063616c6c00600082015250565b600061357d601f83612b08565b915061358882613547565b602082019050919050565b600060208201905081810360008301526135ac81613570565b9050919050565b7f4f776e61626c653a2063616c6c6572206973206e6f7420746865206f776e6572600082015250565b60006135e9602083612b08565b91506135f4826135b3565b602082019050919050565b60006020820190508181036000830152613618816135dc565b905091905056fea2646970667358221220afd838cef7fc286885737ff5c0730de6073e7fe32f632ce42c9af47b4a80c71664736f6c6343000818003360806040523480156200001157600080fd5b506040518060400160405280600c81526020017f546f6b656e5374616b696e6700000000000000000000000000000000000000008152506040518060400160405280600381526020017f545343000000000000000000000000000000000000000000000000000000000081525081600390816200008f9190620004e6565b508060049081620000a19190620004e6565b505050620000e633620000b9620000ec60201b60201c565b60ff16600a620000ca919062000750565b620f4240620000da9190620007a1565b620000f560201b60201c565b620008d8565b60006012905090565b600073ffffffffffffffffffffffffffffffffffffffff168273ffffffffffffffffffffffffffffffffffffffff160362000167576040517f08c379a00000000000000000000000000000000000000000000000000000000081526004016200015e906200084d565b60405180910390fd5b6200017b600083836200026260201b60201c565b80600260008282546200018f91906200086f565b92505081905550806000808473ffffffffffffffffffffffffffffffffffffffff1673ffffffffffffffffffffffffffffffffffffffff168152602001908152602001600020600082825401925050819055508173ffffffffffffffffffffffffffffffffffffffff16600073ffffffffffffffffffffffffffffffffffffffff167fddf252ad1be2c89b69c2b068fc378daa952ba7f163c4a11628f55a4df523b3ef83604051620002429190620008bb565b60405180910390a36200025e600083836200026760201b60201c565b5050565b505050565b505050565b600081519050919050565b7f4e487b7100000000000000000000000000000000000000000000000000000000600052604160045260246000fd5b7f4e487b7100000000000000000000000000000000000000000000000000000000600052602260045260246000fd5b60006002820490506001821680620002ee57607f821691505b602082108103620003045762000303620002a6565b5b50919050565b60008190508160005260206000209050919050565b60006020601f8301049050919050565b600082821b905092915050565b6000600883026200036e7fffffffffffffffffffffffffffffffffffffffffffffffffffffffffffffffff826200032f565b6200037a86836200032f565b95508019841693508086168417925050509392505050565b6000819050919050565b6000819050919050565b6000620003c7620003c1620003bb8462000392565b6200039c565b62000392565b9050919050565b6000819050919050565b620003e383620003a6565b620003fb620003f282620003ce565b8484546200033c565b825550505050565b600090565b6200041262000403565b6200041f818484620003d8565b505050565b5b8181101562000447576200043b60008262000408565b60018101905062000425565b5050565b601f821115620004965762000460816200030a565b6200046b846200031f565b810160208510156200047b578190505b620004936200048a856200031f565b83018262000424565b50505b505050565b600082821c905092915050565b6000620004bb600019846008026200049b565b1980831691505092915050565b6000620004d68383620004a8565b9150826002028217905092915050565b620004f1826200026c565b67ffffffffffffffff8111156200050d576200050c62000277565b5b620005198254620002d5565b620005268282856200044b565b600060209050601f8311600181146200055e576000841562000549578287015190505b620005558582620004c8565b865550620005c5565b601f1984166200056e866200030a565b60005b82811015620005985784890151825560018201915060208501945060208101905062000571565b86831015620005b85784890151620005b4601f891682620004a8565b8355505b6001600288020188555050505b505050505050565b7f4e487b7100000000000000000000000000000000000000000000000000000000600052601160045260246000fd5b60008160011c9050919050565b6000808291508390505b60018511156200065b57808604811115620006335762000632620005cd565b5b6001851615620006435780820291505b80810290506200065385620005fc565b945062000613565b94509492505050565b60008262000676576001905062000749565b8162000686576000905062000749565b81600181146200069f5760028114620006aa57620006e0565b600191505062000749565b60ff841115620006bf57620006be620005cd565b5b8360020a915084821115620006d957620006d8620005cd565b5b5062000749565b5060208310610133831016604e8410600b84101617156200071a5782820a905083811115620007145762000713620005cd565b5b62000749565b62000729848484600162000609565b92509050818404811115620007435762000742620005cd565b5b81810290505b9392505050565b60006200075d8262000392565b91506200076a8362000392565b9250620007997fffffffffffffffffffffffffffffffffffffffffffffffffffffffffffffffff848462000664565b905092915050565b6000620007ae8262000392565b9150620007bb8362000392565b9250828202620007cb8162000392565b91508282048414831517620007e557620007e4620005cd565b5b5092915050565b600082825260208201905092915050565b7f45524332303a206d696e7420746f20746865207a65726f206164647265737300600082015250565b600062000835601f83620007ec565b91506200084282620007fd565b602082019050919050565b60006020820190508181036000830152620008688162000826565b9050919050565b60006200087c8262000392565b9150620008898362000392565b9250828201905080821115620008a457620008a3620005cd565b5b92915050565b620008b58162000392565b82525050565b6000602082019050620008d26000830184620008aa565b92915050565b61122f80620008e86000396000f3fe608060405234801561001057600080fd5b50600436106100a95760003560e01c80633950935111610071578063395093511461016857806370a082311461019857806395d89b41146101c8578063a457c2d7146101e6578063a9059cbb14610216578063dd62ed3e14610246576100a9565b806306fdde03146100ae578063095ea7b3146100cc57806318160ddd146100fc57806323b872dd1461011a578063313ce5671461014a575b600080fd5b6100b6610276565b6040516100c39190610b0c565b60405180910390f35b6100e660048036038101906100e19190610bc7565b610308565b6040516100f39190610c22565b60405180910390f35b61010461032b565b6040516101119190610c4c565b60405180910390f35b610134600480360381019061012f9190610c67565b610335565b6040516101419190610c22565b60405180910390f35b610152610364565b60405161015f9190610cd6565b60405180910390f35b610182600480360381019061017d9190610bc7565b61036d565b60405161018f9190610c22565b60405180910390f35b6101b260048036038101906101ad9190610cf1565b6103a4565b6040516101bf9190610c4c565b60405180910390f35b6101d06103ec565b6040516101dd9190610b0c565b60405180910390f35b61020060048036038101906101fb9190610bc7565b61047e565b60405161020d9190610c22565b60405180910390f35b610230600480360381019061022b9190610bc7565b6104f5565b60405161023d9190610c22565b60405180910390f35b610260600480360381019061025b9190610d1e565b610518565b60405161026d9190610c4c565b60405180910390f35b60606003805461028590610d8d565b80601f01602080910402602001604051908101604052809291908181526020018280546102b190610d8d565b80156102fe5780601f106102d3576101008083540402835291602001916102fe565b820191906000526020600020905b8154815290600101906020018083116102e157829003601f168201915b5050505050905090565b60008061031361059f565b90506103208185856105a7565b600191505092915050565b6000600254905090565b60008061034061059f565b905061034d858285610770565b6103588585856107fc565b60019150509392505050565b60006012905090565b60008061037861059f565b905061039981858561038a8589610518565b6103949190610ded565b6105a7565b600191505092915050565b60008060008373ffffffffffffffffffffffffffffffffffffffff1673ffffffffffffffffffffffffffffffffffffffff168152602001908152602001600020549050919050565b6060600480546103fb90610d8d565b80601f016020809104026020016040519081016040528092919081815260200182805461042790610d8d565b80156104745780601f1061044957610100808354040283529160200191610474565b820191906000526020600020905b81548152906001019060200180831161045757829003601f168201915b5050505050905090565b60008061048961059f565b905060006104978286610518565b9050838110156104dc576040517f08c379a00000000000000000000000000000000000000000000000000000000081526004016104d390610e93565b60405180910390fd5b6104e982868684036105a7565b60019250505092915050565b60008061050061059f565b905061050d8185856107fc565b600191505092915050565b6000600160008473ffffffffffffffffffffffffffffffffffffffff1673ffffffffffffffffffffffffffffffffffffffff16815260200190815260200160002060008373ffffffffffffffffffffffffffffffffffffffff1673ffffffffffffffffffffffffffffffffffffffff16815260200190815260200160002054905092915050565b600033905090565b600073ffffffffffffffffffffffffffffffffffffffff168373ffffffffffffffffffffffffffffffffffffffff1603610616576040517f08c379a000000000000000000000000000000000000000000000000000000000815260040161060d90610f25565b60405180910390fd5b600073ffffffffffffffffffffffffffffffffffffffff168273ffffffffffffffffffffffffffffffffffffffff1603610685576040517f08c379a000000000000000000000000000000000000000000000000000000000815260040161067c90610fb7565b60405180910390fd5b80600160008573ffffffffffffffffffffffffffffffffffffffff1673ffffffffffffffffffffffffffffffffffffffff16815260200190815260200160002060008473ffffffffffffffffffffffffffffffffffffffff1673ffffffffffffffffffffffffffffffffffffffff168152602001908152602001600020819055508173ffffffffffffffffffffffffffffffffffffffff168373ffffffffffffffffffffffffffffffffffffffff167f8c5be1e5ebec7d5bd14f71427d1e84f3dd0314c0f7b2291e5b200ac8c7c3b925836040516107639190610c4c565b60405180910390a3505050565b600061077c8484610518565b90507fffffffffffffffffffffffffffffffffffffffffffffffffffffffffffffffff81146107f657818110156107e8576040517f08c379a00000000000000000000000000000000000000000000000000000000081526004016107df90611023565b60405180910390fd5b6107f584848484036105a7565b5b50505050565b600073ffffffffffffffffffffffffffffffffffffffff168373ffffffffffffffffffffffffffffffffffffffff160361086b576040517f08c379a0000000000000000000000000000000000000000000000000000000008152600401610862906110b5565b60405180910390fd5b600073ffffffffffffffffffffffffffffffffffffffff168273ffffffffffffffffffffffffffffffffffffffff16036108da576040517f08c379a00000000000000000000000000000000000000000000000000000000081526004016108d190611147565b60405180910390fd5b6108e5838383610a72565b60008060008573ffffffffffffffffffffffffffffffffffffffff1673ffffffffffffffffffffffffffffffffffffffff1681526020019081526020016000205490508181101561096b576040517f08c379a0000000000000000000000000000000000000000000000000000000008152600401610962906111d9565b60405180910390fd5b8181036000808673ffffffffffffffffffffffffffffffffffffffff1673ffffffffffffffffffffffffffffffffffffffff16815260200190815260200160002081905550816000808573ffffffffffffffffffffffffffffffffffffffff1673ffffffffffffffffffffffffffffffffffffffff168152602001908152602001600020600082825401925050819055508273ffffffffffffffffffffffffffffffffffffffff168473ffffffffffffffffffffffffffffffffffffffff167fddf252ad1be2c89b69c2b068fc378daa952ba7f163c4a11628f55a4df523b3ef84604051610a599190610c4c565b60405180910390a3610a6c848484610a77565b50505050565b505050565b505050565b600081519050919050565b600082825260208201905092915050565b60005b83811015610ab6578082015181840152602081019050610a9b565b60008484015250505050565b6000601f19601f8301169050919050565b6000610ade82610a7c565b610ae88185610a87565b9350610af8818560208601610a98565b610b0181610ac2565b840191505092915050565b60006020820190508181036000830152610b268184610ad3565b905092915050565b600080fd5b600073ffffffffffffffffffffffffffffffffffffffff82169050919050565b6000610b5e82610b33565b9050919050565b610b6e81610b53565b8114610b7957600080fd5b50565b600081359050610b8b81610b65565b92915050565b6000819050919050565b610ba481610b91565b8114610baf57600080fd5b50565b600081359050610bc181610b9b565b92915050565b60008060408385031215610bde57610bdd610b2e565b5b6000610bec85828601610b7c565b9250506020610bfd85828601610bb2565b9150509250929050565b60008115159050919050565b610c1c81610c07565b82525050565b6000602082019050610c376000830184610c13565b92915050565b610c4681610b91565b82525050565b6000602082019050610c616000830184610c3d565b92915050565b600080600060608486031215610c8057610c7f610b2e565b5b6000610c8e86828701610b7c565b9350506020610c9f86828701610b7c565b9250506040610cb086828701610bb2565b9150509250925092565b600060ff82169050919050565b610cd081610cba565b82525050565b6000602082019050610ceb6000830184610cc7565b92915050565b600060208284031215610d0757610d06610b2e565b5b6000610d1584828501610b7c565b91505092915050565b60008060408385031215610d3557610d34610b2e565b5b6000610d4385828601610b7c565b9250506020610d5485828601610b7c565b9150509250929050565b7f4e487b7100000000000000000000000000000000000000000000000000000000600052602260045260246000fd5b60006002820490506001821680610da557607f821691505b602082108103610db857610db7610d5e565b5b50919050565b7f4e487b7100000000000000000000000000000000000000000000000000000000600052601160045260246000fd5b6000610df882610b91565b9150610e0383610b91565b9250828201905080821115610e1b57610e1a610dbe565b5b92915050565b7f45524332303a2064656372656173656420616c6c6f77616e63652062656c6f7760008201527f207a65726f000000000000000000000000000000000000000000000000000000602082015250565b6000610e7d602583610a87565b9150610e8882610e21565b604082019050919050565b60006020820190508181036000830152610eac81610e70565b9050919050565b7f45524332303a20617070726f76652066726f6d20746865207a65726f2061646460008201527f7265737300000000000000000000000000000000000000000000000000000000602082015250565b6000610f0f602483610a87565b9150610f1a82610eb3565b604082019050919050565b60006020820190508181036000830152610f3e81610f02565b9050919050565b7f45524332303a20617070726f766520746f20746865207a65726f20616464726560008201527f7373000000000000000000000000000000000000000000000000000000000000602082015250565b6000610fa1602283610a87565b9150610fac82610f45565b604082019050919050565b60006020820190508181036000830152610fd081610f94565b9050919050565b7f45524332303a20696e73756666696369656e7420616c6c6f77616e6365000000600082015250565b600061100d601d83610a87565b915061101882610fd7565b602082019050919050565b6000602082019050818103600083015261103c81611000565b9050919050565b7f45524332303a207472616e736665722066726f6d20746865207a65726f20616460008201527f6472657373000000000000000000000000000000000000000000000000000000602082015250565b600061109f602583610a87565b91506110aa82611043565b604082019050919050565b600060208201905081810360008301526110ce81611092565b9050919050565b7f45524332303a207472616e7366657220746f20746865207a65726f206164647260008201527f6573730000000000000000000000000000000000000000000000000000000000602082015250565b6000611131602383610a87565b915061113c826110d5565b604082019050919050565b6000602082019050818103600083015261116081611124565b9050919050565b7f45524332303a207472616e7366657220616d6f756e742065786365656473206260008201527f616c616e63650000000000000000000000000000000000000000000000000000602082015250565b60006111c3602683610a87565b91506111ce82611167565b604082019050919050565b600060208201905081810360008301526111f2816111b6565b905091905056fea2646970667358221220e97b605037319fe9e93d48040f7532ed1e411b340f9a72d6efaa9c0d1a587af064736f6c63430008180033",
  "linkReferences": {},
  "deployedLinkReferences": {}
}